{
  "_format": "hh-sol-artifact-1",
  "contractName": "PIKBLOCKEVENTMarket",
  "sourceName": "contracts/PIKBLOCKEVENTMarket.sol",
  "abi": [
    {
      "inputs": [],
      "stateMutability": "nonpayable",
      "type": "constructor"
    },
    {
      "anonymous": false,
      "inputs": [
        {
          "indexed": true,
          "internalType": "uint256",
          "name": "itemId",
          "type": "uint256"
        },
        {
          "indexed": true,
          "internalType": "address",
          "name": "nftContract",
          "type": "address"
        },
        {
          "indexed": true,
          "internalType": "uint256",
          "name": "tokenId",
          "type": "uint256"
        },
        {
          "indexed": false,
          "internalType": "address",
          "name": "seller",
          "type": "address"
        },
        {
          "indexed": false,
          "internalType": "address",
          "name": "creator",
          "type": "address"
        },
        {
          "indexed": false,
          "internalType": "uint256",
          "name": "price",
          "type": "uint256"
        },
        {
          "indexed": false,
          "internalType": "bool",
          "name": "sold",
          "type": "bool"
        }
      ],
      "name": "MarketItemCreated",
      "type": "event"
    },
    {
      "anonymous": false,
      "inputs": [
        {
          "indexed": true,
          "internalType": "bytes32",
          "name": "role",
          "type": "bytes32"
        },
        {
          "indexed": true,
          "internalType": "bytes32",
          "name": "previousAdminRole",
          "type": "bytes32"
        },
        {
          "indexed": true,
          "internalType": "bytes32",
          "name": "newAdminRole",
          "type": "bytes32"
        }
      ],
      "name": "RoleAdminChanged",
      "type": "event"
    },
    {
      "anonymous": false,
      "inputs": [
        {
          "indexed": true,
          "internalType": "bytes32",
          "name": "role",
          "type": "bytes32"
        },
        {
          "indexed": true,
          "internalType": "address",
          "name": "account",
          "type": "address"
        },
        {
          "indexed": true,
          "internalType": "address",
          "name": "sender",
          "type": "address"
        }
      ],
      "name": "RoleGranted",
      "type": "event"
    },
    {
      "anonymous": false,
      "inputs": [
        {
          "indexed": true,
          "internalType": "bytes32",
          "name": "role",
          "type": "bytes32"
        },
        {
          "indexed": true,
          "internalType": "address",
          "name": "account",
          "type": "address"
        },
        {
          "indexed": true,
          "internalType": "address",
          "name": "sender",
          "type": "address"
        }
      ],
      "name": "RoleRevoked",
      "type": "event"
    },
    {
      "inputs": [],
      "name": "DEFAULT_ADMIN_ROLE",
      "outputs": [
        {
          "internalType": "bytes32",
          "name": "",
          "type": "bytes32"
        }
      ],
      "stateMutability": "view",
      "type": "function"
    },
    {
      "inputs": [],
      "name": "WITHDRAW_ROLE",
      "outputs": [
        {
          "internalType": "bytes32",
          "name": "",
          "type": "bytes32"
        }
      ],
      "stateMutability": "view",
      "type": "function"
    },
    {
      "inputs": [
        {
          "internalType": "address",
          "name": "nftContract",
          "type": "address"
        },
        {
          "internalType": "uint256",
          "name": "tokenId",
          "type": "uint256"
        },
        {
          "internalType": "uint256",
          "name": "price",
          "type": "uint256"
        }
      ],
      "name": "createMarketItem",
      "outputs": [],
      "stateMutability": "payable",
      "type": "function"
    },
    {
      "inputs": [
        {
          "internalType": "address",
          "name": "nftContract",
          "type": "address"
        },
        {
          "internalType": "uint256",
          "name": "itemId",
          "type": "uint256"
        }
      ],
      "name": "createMarketSale",
      "outputs": [],
      "stateMutability": "payable",
      "type": "function"
    },
    {
      "inputs": [],
      "name": "fetchItemsCreated",
      "outputs": [
        {
          "components": [
            {
              "internalType": "uint256",
              "name": "itemId",
              "type": "uint256"
            },
            {
              "internalType": "address",
              "name": "nftContract",
              "type": "address"
            },
            {
              "internalType": "uint256",
              "name": "tokenId",
              "type": "uint256"
            },
            {
              "internalType": "address payable",
              "name": "seller",
              "type": "address"
            },
            {
              "internalType": "address payable",
              "name": "creator",
              "type": "address"
            },
            {
              "internalType": "uint256",
              "name": "price",
              "type": "uint256"
            },
            {
              "internalType": "bool",
              "name": "sold",
              "type": "bool"
            }
          ],
          "internalType": "struct PIKBLOCKEVENTMarket.MarketItem[]",
          "name": "",
          "type": "tuple[]"
        }
      ],
      "stateMutability": "view",
      "type": "function"
    },
    {
      "inputs": [],
      "name": "fetchMarketItems",
      "outputs": [
        {
          "components": [
            {
              "internalType": "uint256",
              "name": "itemId",
              "type": "uint256"
            },
            {
              "internalType": "address",
              "name": "nftContract",
              "type": "address"
            },
            {
              "internalType": "uint256",
              "name": "tokenId",
              "type": "uint256"
            },
            {
              "internalType": "address payable",
              "name": "seller",
              "type": "address"
            },
            {
              "internalType": "address payable",
              "name": "creator",
              "type": "address"
            },
            {
              "internalType": "uint256",
              "name": "price",
              "type": "uint256"
            },
            {
              "internalType": "bool",
              "name": "sold",
              "type": "bool"
            }
          ],
          "internalType": "struct PIKBLOCKEVENTMarket.MarketItem[]",
          "name": "",
          "type": "tuple[]"
        }
      ],
      "stateMutability": "view",
      "type": "function"
    },
    {
      "inputs": [],
      "name": "fetchMyNFTs",
      "outputs": [
        {
          "components": [
            {
              "internalType": "uint256",
              "name": "itemId",
              "type": "uint256"
            },
            {
              "internalType": "address",
              "name": "nftContract",
              "type": "address"
            },
            {
              "internalType": "uint256",
              "name": "tokenId",
              "type": "uint256"
            },
            {
              "internalType": "address payable",
              "name": "seller",
              "type": "address"
            },
            {
              "internalType": "address payable",
              "name": "creator",
              "type": "address"
            },
            {
              "internalType": "uint256",
              "name": "price",
              "type": "uint256"
            },
            {
              "internalType": "bool",
              "name": "sold",
              "type": "bool"
            }
          ],
          "internalType": "struct PIKBLOCKEVENTMarket.MarketItem[]",
          "name": "",
          "type": "tuple[]"
        }
      ],
      "stateMutability": "view",
      "type": "function"
    },
    {
      "inputs": [],
      "name": "getListingPrice",
      "outputs": [
        {
          "internalType": "uint256",
          "name": "",
          "type": "uint256"
        }
      ],
      "stateMutability": "view",
      "type": "function"
    },
    {
      "inputs": [
        {
          "internalType": "bytes32",
          "name": "role",
          "type": "bytes32"
        }
      ],
      "name": "getRoleAdmin",
      "outputs": [
        {
          "internalType": "bytes32",
          "name": "",
          "type": "bytes32"
        }
      ],
      "stateMutability": "view",
      "type": "function"
    },
    {
      "inputs": [
        {
          "internalType": "bytes32",
          "name": "role",
          "type": "bytes32"
        },
        {
          "internalType": "address",
          "name": "account",
          "type": "address"
        }
      ],
      "name": "grantRole",
      "outputs": [],
      "stateMutability": "nonpayable",
      "type": "function"
    },
    {
      "inputs": [
        {
          "internalType": "bytes32",
          "name": "role",
          "type": "bytes32"
        },
        {
          "internalType": "address",
          "name": "account",
          "type": "address"
        }
      ],
      "name": "hasRole",
      "outputs": [
        {
          "internalType": "bool",
          "name": "",
          "type": "bool"
        }
      ],
      "stateMutability": "view",
      "type": "function"
    },
    {
      "inputs": [
        {
          "internalType": "bytes32",
          "name": "role",
          "type": "bytes32"
        },
        {
          "internalType": "address",
          "name": "account",
          "type": "address"
        }
      ],
      "name": "renounceRole",
      "outputs": [],
      "stateMutability": "nonpayable",
      "type": "function"
    },
    {
      "inputs": [
        {
          "internalType": "bytes32",
          "name": "role",
          "type": "bytes32"
        },
        {
          "internalType": "address",
          "name": "account",
          "type": "address"
        }
      ],
      "name": "revokeRole",
      "outputs": [],
      "stateMutability": "nonpayable",
      "type": "function"
    },
    {
      "inputs": [
        {
          "internalType": "bytes4",
          "name": "interfaceId",
          "type": "bytes4"
        }
      ],
      "name": "supportsInterface",
      "outputs": [
        {
          "internalType": "bool",
          "name": "",
          "type": "bool"
        }
      ],
      "stateMutability": "view",
      "type": "function"
    },
    {
      "inputs": [
        {
          "internalType": "uint256",
          "name": "amount",
          "type": "uint256"
        }
      ],
      "name": "withdraw",
      "outputs": [],
      "stateMutability": "nonpayable",
      "type": "function"
    }
  ],
  "bytecode": "0x60806040526706f05b59d3b2000060055534801561001c57600080fd5b506001600090815561002e903361006f565b6100587f5d8e12c39142ff96d79d04d15d1ba1269e4fe57bb9d26f43523628b34ba108ec3361006f565b600480546001600160a01b03191633179055610104565b610079828261007d565b5050565b60008281526001602090815260408083206001600160a01b038516845290915290205460ff166100795760008281526001602081815260408084206001600160a01b0386168086529252808420805460ff19169093179092559051339285917f2f8788117e7eff1d82e926ec794901d17c78024a50270940304540a733656f0d9190a45050565b611564806101136000396000f3fe6080604052600436106100e85760003560e01c806336568abe1161008a578063c23b139e11610059578063c23b139e14610253578063d547741f14610266578063e02023a114610286578063f064c32e146102ba576100e8565b806336568abe146101eb57806358eb2df51461020b57806391d148541461021e578063a217fddf1461023e576100e8565b8063202e3740116100c6578063202e374014610163578063248a9ca3146101785780632e1a7d4d146101a95780632f2ff15d146101cb576100e8565b806301ffc9a7146100ed5780630f08efe01461012257806312e8558514610144575b600080fd5b3480156100f957600080fd5b5061010d6101083660046112cd565b6102cf565b60405190151581526020015b60405180910390f35b34801561012e57600080fd5b50610137610308565b604051610119919061136a565b34801561015057600080fd5b506005545b604051908152602001610119565b34801561016f57600080fd5b506101376104b0565b34801561018457600080fd5b5061015561019336600461128a565b6000908152600160208190526040909120015490565b3480156101b557600080fd5b506101c96101c436600461128a565b610696565b005b3480156101d757600080fd5b506101c96101e63660046112a2565b610787565b3480156101f757600080fd5b506101c96102063660046112a2565b6107b3565b6101c9610219366004611258565b610831565b34801561022a57600080fd5b5061010d6102393660046112a2565b610a9a565b34801561024a57600080fd5b50610155600081565b6101c961026136600461122f565b610ac5565b34801561027257600080fd5b506101c96102813660046112a2565b610cb0565b34801561029257600080fd5b506101557f5d8e12c39142ff96d79d04d15d1ba1269e4fe57bb9d26f43523628b34ba108ec81565b3480156102c657600080fd5b50610137610cd7565b60006001600160e01b03198216637965db0b60e01b148061030057506301ffc9a760e01b6001600160e01b03198316145b90505b919050565b6060600061031560025490565b9050600061032260035490565b60025461032f919061149f565b90506000808267ffffffffffffffff81111561035b57634e487b7160e01b600052604160045260246000fd5b60405190808252806020026020018201604052801561039457816020015b6103816111dc565b8152602001906001900390816103795790505b50905060005b848110156104a75760006006816103b2846001611468565b81526020810191909152604001600020600401546001600160a01b031614156104955760006103e2826001611468565b600081815260066020818152604092839020835160e0810185528154815260018201546001600160a01b039081169382019390935260028201549481019490945260038101548216606085015260048101549091166080840152600581015460a08401529081015460ff16151560c083015285519293509185908790811061047a57634e487b7160e01b600052603260045260246000fd5b6020908102919091010152610490600186611468565b945050505b8061049f816114fd565b91505061039a565b50935050505090565b606060006104bd60025490565b905060008060005b838110156105205733600660006104dd846001611468565b81526020810191909152604001600020600401546001600160a01b0316141561050e5761050b600184611468565b92505b80610518816114fd565b9150506104c5565b5060008267ffffffffffffffff81111561054a57634e487b7160e01b600052604160045260246000fd5b60405190808252806020026020018201604052801561058357816020015b6105706111dc565b8152602001906001900390816105685790505b50905060005b848110156104a75733600660006105a1846001611468565b81526020810191909152604001600020600401546001600160a01b031614156106845760006105d1826001611468565b600081815260066020818152604092839020835160e0810185528154815260018201546001600160a01b039081169382019390935260028201549481019490945260038101548216606085015260048101549091166080840152600581015460a08401529081015460ff16151560c083015285519293509185908790811061066957634e487b7160e01b600052603260045260246000fd5b602090810291909101015261067f600186611468565b945050505b8061068e816114fd565b915050610589565b7f5d8e12c39142ff96d79d04d15d1ba1269e4fe57bb9d26f43523628b34ba108ec6106c281335b610ebd565b600260005414156106ee5760405162461bcd60e51b81526004016106e590611431565b60405180910390fd5b60026000908155604051339084908381818185875af1925050503d8060008114610734576040519150601f19603f3d011682016040523d82523d6000602084013e610739565b606091505b505090508061077d5760405162461bcd60e51b815260206004820152601060248201526f2a3930b739b332b9103330b4b632b21760811b60448201526064016106e5565b5050600160005550565b600082815260016020819052604090912001546107a481336106bd565b6107ae8383610f21565b505050565b6001600160a01b03811633146108235760405162461bcd60e51b815260206004820152602f60248201527f416363657373436f6e74726f6c3a2063616e206f6e6c792072656e6f756e636560448201526e103937b632b9903337b91039b2b63360891b60648201526084016106e5565b61082d8282610f8c565b5050565b600260005414156108545760405162461bcd60e51b81526004016106e590611431565b6002600055806108a65760405162461bcd60e51b815260206004820152601c60248201527f5072696365206d757374206265206174206c656173742031207765690000000060448201526064016106e5565b60055434146109035760405162461bcd60e51b8152602060048201526024808201527f5072696365206d75737420626520657175616c20746f206c697374696e6720706044820152637269636560e01b60648201526084016106e5565b610911600280546001019055565b600061091c60025490565b6040805160e0810182528281526001600160a01b0387811660208084018281528486018a8152336060870181815260006080890181815260a08a018e815260c08b018381528d8452600698899052928c90209a518b55955160018b0180546001600160a01b0319908116928c16929092179055945160028b0155915160038a0180548616918a1691909117905590516004808a0180549095169190981617909255915160058701555194909101805460ff19169415159490941790935592516323b872dd60e01b81529081019190915230602482015260448101869052919250906323b872dd90606401600060405180830381600087803b158015610a2057600080fd5b505af1158015610a34573d6000803e3d6000fd5b505060408051338152600060208201819052818301879052606082015290518693506001600160a01b038816925084917f045dfa01dcba2b36aba1d3dc4a874f4b0c5d2fbeb8d2c4b34a7d88c8d8f929d1919081900360800190a4505060016000555050565b60009182526001602090815260408084206001600160a01b0393909316845291905290205460ff1690565b60026000541415610ae85760405162461bcd60e51b81526004016106e590611431565b600260008181558281526006602052604090206005810154910154348214610b7a576040805162461bcd60e51b81526020600482015260248101919091527f506c65617365207375626d6974207468652061736b696e67207072696365206960448201527f6e206f7264657220746f20636f6d706c6574652074686520707572636861736560648201526084016106e5565b6000838152600660205260408082206003015490516001600160a01b03909116913480156108fc02929091818181858888f19350505050158015610bc2573d6000803e3d6000fd5b506040516323b872dd60e01b8152306004820152336024820152604481018290526001600160a01b038516906323b872dd90606401600060405180830381600087803b158015610c1157600080fd5b505af1158015610c25573d6000803e3d6000fd5b50505060008481526006602081905260409091206004810180546001600160a01b0319163317905501805460ff1916600117905550610c68600380546001019055565b6004546005546040516001600160a01b039092169181156108fc0291906000818181858888f19350505050158015610ca4573d6000803e3d6000fd5b50506001600055505050565b60008281526001602081905260409091200154610ccd81336106bd565b6107ae8383610f8c565b60606000610ce460025490565b905060008060005b83811015610d47573360066000610d04846001611468565b81526020810191909152604001600020600301546001600160a01b03161415610d3557610d32600184611468565b92505b80610d3f816114fd565b915050610cec565b5060008267ffffffffffffffff811115610d7157634e487b7160e01b600052604160045260246000fd5b604051908082528060200260200182016040528015610daa57816020015b610d976111dc565b815260200190600190039081610d8f5790505b50905060005b848110156104a7573360066000610dc8846001611468565b81526020810191909152604001600020600301546001600160a01b03161415610eab576000610df8826001611468565b600081815260066020818152604092839020835160e0810185528154815260018201546001600160a01b039081169382019390935260028201549481019490945260038101548216606085015260048101549091166080840152600581015460a08401529081015460ff16151560c0830152855192935091859087908110610e9057634e487b7160e01b600052603260045260246000fd5b6020908102919091010152610ea6600186611468565b945050505b80610eb5816114fd565b915050610db0565b610ec78282610a9a565b61082d57610edf816001600160a01b03166014610ff3565b610eea836020610ff3565b604051602001610efb9291906112f5565b60408051601f198184030181529082905262461bcd60e51b82526106e5916004016113fe565b610f2b8282610a9a565b61082d5760008281526001602081815260408084206001600160a01b0386168086529252808420805460ff19169093179092559051339285917f2f8788117e7eff1d82e926ec794901d17c78024a50270940304540a733656f0d9190a45050565b610f968282610a9a565b1561082d5760008281526001602090815260408083206001600160a01b0385168085529252808320805460ff1916905551339285917ff6391f5c32d9c69d2a47ea670b442974b53935d1edc7fd64eb21e047a839171b9190a45050565b60606000611002836002611480565b61100d906002611468565b67ffffffffffffffff81111561103357634e487b7160e01b600052604160045260246000fd5b6040519080825280601f01601f19166020018201604052801561105d576020820181803683370190505b509050600360fc1b8160008151811061108657634e487b7160e01b600052603260045260246000fd5b60200101906001600160f81b031916908160001a905350600f60fb1b816001815181106110c357634e487b7160e01b600052603260045260246000fd5b60200101906001600160f81b031916908160001a90535060006110e7846002611480565b6110f2906001611468565b90505b6001811115611186576f181899199a1a9b1b9c1cb0b131b232b360811b85600f166010811061113457634e487b7160e01b600052603260045260246000fd5b1a60f81b82828151811061115857634e487b7160e01b600052603260045260246000fd5b60200101906001600160f81b031916908160001a90535060049490941c9361117f816114e6565b90506110f5565b5083156111d55760405162461bcd60e51b815260206004820181905260248201527f537472696e67733a20686578206c656e67746820696e73756666696369656e7460448201526064016106e5565b9392505050565b6040805160e081018252600080825260208201819052918101829052606081018290526080810182905260a0810182905260c081019190915290565b80356001600160a01b038116811461030357600080fd5b60008060408385031215611241578182fd5b61124a83611218565b946020939093013593505050565b60008060006060848603121561126c578081fd5b61127584611218565b95602085013595506040909401359392505050565b60006020828403121561129b578081fd5b5035919050565b600080604083850312156112b4578182fd5b823591506112c460208401611218565b90509250929050565b6000602082840312156112de578081fd5b81356001600160e01b0319811681146111d5578182fd5b60007f416363657373436f6e74726f6c3a206163636f756e74200000000000000000008252835161132d8160178501602088016114b6565b7001034b99036b4b9b9b4b733903937b6329607d1b601791840191820152835161135e8160288401602088016114b6565b01602801949350505050565b602080825282518282018190526000919060409081850190868401855b828110156113f157815180518552868101516001600160a01b039081168887015286820151878701526060808301518216908701526080808301519091169086015260a0808201519086015260c09081015115159085015260e09093019290850190600101611387565b5091979650505050505050565b600060208252825180602084015261141d8160408501602087016114b6565b601f01601f19169190910160400192915050565b6020808252601f908201527f5265656e7472616e637947756172643a207265656e7472616e742063616c6c00604082015260600190565b6000821982111561147b5761147b611518565b500190565b600081600019048311821515161561149a5761149a611518565b500290565b6000828210156114b1576114b1611518565b500390565b60005b838110156114d15781810151838201526020016114b9565b838111156114e0576000848401525b50505050565b6000816114f5576114f5611518565b506000190190565b600060001982141561151157611511611518565b5060010190565b634e487b7160e01b600052601160045260246000fdfea264697066735822122067887d7146f8cd260005e12a2fa1ecccb7f01e441f4ec42b715c7c6766aa15d964736f6c63430008030033",
  "linkReferences": {},
  "deployedLinkReferences": {}
}