{
  "_format": "hh-sol-artifact-1",
  "contractName": "PIKBLOCKFRIENDS",
  "sourceName": "contracts/PIKBLOCKFRIENDS.sol",
  "abi": [
    {
      "inputs": [
        {
          "internalType": "address",
          "name": "marketplaceAddress",
          "type": "address"
        }
      ],
      "stateMutability": "nonpayable",
      "type": "constructor"
    },
    {
      "anonymous": false,
      "inputs": [
        {
          "indexed": true,
          "internalType": "address",
          "name": "owner",
          "type": "address"
        },
        {
          "indexed": true,
          "internalType": "address",
          "name": "approved",
          "type": "address"
        },
        {
          "indexed": true,
          "internalType": "uint256",
          "name": "tokenId",
          "type": "uint256"
        }
      ],
      "name": "Approval",
      "type": "event"
    },
    {
      "anonymous": false,
      "inputs": [
        {
          "indexed": true,
          "internalType": "address",
          "name": "owner",
          "type": "address"
        },
        {
          "indexed": true,
          "internalType": "address",
          "name": "operator",
          "type": "address"
        },
        {
          "indexed": false,
          "internalType": "bool",
          "name": "approved",
          "type": "bool"
        }
      ],
      "name": "ApprovalForAll",
      "type": "event"
    },
    {
      "anonymous": false,
      "inputs": [
        {
          "indexed": true,
          "internalType": "address",
          "name": "user",
          "type": "address"
        },
        {
          "indexed": false,
          "internalType": "bool",
          "name": "value",
          "type": "bool"
        }
      ],
      "name": "BlacklistUpdated",
      "type": "event"
    },
    {
      "anonymous": false,
      "inputs": [
        {
          "indexed": false,
          "internalType": "address",
          "name": "account",
          "type": "address"
        }
      ],
      "name": "Paused",
      "type": "event"
    },
    {
      "anonymous": false,
      "inputs": [
        {
          "indexed": true,
          "internalType": "bytes32",
          "name": "role",
          "type": "bytes32"
        },
        {
          "indexed": true,
          "internalType": "bytes32",
          "name": "previousAdminRole",
          "type": "bytes32"
        },
        {
          "indexed": true,
          "internalType": "bytes32",
          "name": "newAdminRole",
          "type": "bytes32"
        }
      ],
      "name": "RoleAdminChanged",
      "type": "event"
    },
    {
      "anonymous": false,
      "inputs": [
        {
          "indexed": true,
          "internalType": "bytes32",
          "name": "role",
          "type": "bytes32"
        },
        {
          "indexed": true,
          "internalType": "address",
          "name": "account",
          "type": "address"
        },
        {
          "indexed": true,
          "internalType": "address",
          "name": "sender",
          "type": "address"
        }
      ],
      "name": "RoleGranted",
      "type": "event"
    },
    {
      "anonymous": false,
      "inputs": [
        {
          "indexed": true,
          "internalType": "bytes32",
          "name": "role",
          "type": "bytes32"
        },
        {
          "indexed": true,
          "internalType": "address",
          "name": "account",
          "type": "address"
        },
        {
          "indexed": true,
          "internalType": "address",
          "name": "sender",
          "type": "address"
        }
      ],
      "name": "RoleRevoked",
      "type": "event"
    },
    {
      "anonymous": false,
      "inputs": [
        {
          "indexed": true,
          "internalType": "address",
          "name": "from",
          "type": "address"
        },
        {
          "indexed": true,
          "internalType": "address",
          "name": "to",
          "type": "address"
        },
        {
          "indexed": true,
          "internalType": "uint256",
          "name": "tokenId",
          "type": "uint256"
        }
      ],
      "name": "Transfer",
      "type": "event"
    },
    {
      "anonymous": false,
      "inputs": [
        {
          "indexed": false,
          "internalType": "address",
          "name": "account",
          "type": "address"
        }
      ],
      "name": "Unpaused",
      "type": "event"
    },
    {
      "inputs": [],
      "name": "BLOCKER_ROLE",
      "outputs": [
        {
          "internalType": "bytes32",
          "name": "",
          "type": "bytes32"
        }
      ],
      "stateMutability": "view",
      "type": "function"
    },
    {
      "inputs": [],
      "name": "BURNER_ROLE",
      "outputs": [
        {
          "internalType": "bytes32",
          "name": "",
          "type": "bytes32"
        }
      ],
      "stateMutability": "view",
      "type": "function"
    },
    {
      "inputs": [],
      "name": "DEFAULT_ADMIN_ROLE",
      "outputs": [
        {
          "internalType": "bytes32",
          "name": "",
          "type": "bytes32"
        }
      ],
      "stateMutability": "view",
      "type": "function"
    },
    {
      "inputs": [],
      "name": "PAUSER_ROLE",
      "outputs": [
        {
          "internalType": "bytes32",
          "name": "",
          "type": "bytes32"
        }
      ],
      "stateMutability": "view",
      "type": "function"
    },
    {
      "inputs": [
        {
          "internalType": "address",
          "name": "to",
          "type": "address"
        },
        {
          "internalType": "uint256",
          "name": "tokenId",
          "type": "uint256"
        }
      ],
      "name": "approve",
      "outputs": [],
      "stateMutability": "nonpayable",
      "type": "function"
    },
    {
      "inputs": [
        {
          "internalType": "address",
          "name": "owner",
          "type": "address"
        }
      ],
      "name": "balanceOf",
      "outputs": [
        {
          "internalType": "uint256",
          "name": "",
          "type": "uint256"
        }
      ],
      "stateMutability": "view",
      "type": "function"
    },
    {
      "inputs": [
        {
          "internalType": "address",
          "name": "user",
          "type": "address"
        },
        {
          "internalType": "bool",
          "name": "value",
          "type": "bool"
        }
      ],
      "name": "blacklistUpdate",
      "outputs": [],
      "stateMutability": "nonpayable",
      "type": "function"
    },
    {
      "inputs": [
        {
          "internalType": "uint256",
          "name": "tokenId",
          "type": "uint256"
        }
      ],
      "name": "burn",
      "outputs": [],
      "stateMutability": "nonpayable",
      "type": "function"
    },
    {
      "inputs": [
        {
          "internalType": "string",
          "name": "tokenURI",
          "type": "string"
        }
      ],
      "name": "createToken",
      "outputs": [
        {
          "internalType": "uint256",
          "name": "",
          "type": "uint256"
        }
      ],
      "stateMutability": "nonpayable",
      "type": "function"
    },
    {
      "inputs": [
        {
          "internalType": "uint256",
          "name": "tokenId",
          "type": "uint256"
        }
      ],
      "name": "getApproved",
      "outputs": [
        {
          "internalType": "address",
          "name": "",
          "type": "address"
        }
      ],
      "stateMutability": "view",
      "type": "function"
    },
    {
      "inputs": [
        {
          "internalType": "bytes32",
          "name": "role",
          "type": "bytes32"
        }
      ],
      "name": "getRoleAdmin",
      "outputs": [
        {
          "internalType": "bytes32",
          "name": "",
          "type": "bytes32"
        }
      ],
      "stateMutability": "view",
      "type": "function"
    },
    {
      "inputs": [
        {
          "internalType": "bytes32",
          "name": "role",
          "type": "bytes32"
        },
        {
          "internalType": "address",
          "name": "account",
          "type": "address"
        }
      ],
      "name": "grantRole",
      "outputs": [],
      "stateMutability": "nonpayable",
      "type": "function"
    },
    {
      "inputs": [
        {
          "internalType": "bytes32",
          "name": "role",
          "type": "bytes32"
        },
        {
          "internalType": "address",
          "name": "account",
          "type": "address"
        }
      ],
      "name": "hasRole",
      "outputs": [
        {
          "internalType": "bool",
          "name": "",
          "type": "bool"
        }
      ],
      "stateMutability": "view",
      "type": "function"
    },
    {
      "inputs": [
        {
          "internalType": "address",
          "name": "owner",
          "type": "address"
        },
        {
          "internalType": "address",
          "name": "operator",
          "type": "address"
        }
      ],
      "name": "isApprovedForAll",
      "outputs": [
        {
          "internalType": "bool",
          "name": "",
          "type": "bool"
        }
      ],
      "stateMutability": "view",
      "type": "function"
    },
    {
      "inputs": [
        {
          "internalType": "address",
          "name": "user",
          "type": "address"
        }
      ],
      "name": "isBlackListed",
      "outputs": [
        {
          "internalType": "bool",
          "name": "",
          "type": "bool"
        }
      ],
      "stateMutability": "view",
      "type": "function"
    },
    {
      "inputs": [],
      "name": "name",
      "outputs": [
        {
          "internalType": "string",
          "name": "",
          "type": "string"
        }
      ],
      "stateMutability": "view",
      "type": "function"
    },
    {
      "inputs": [
        {
          "internalType": "uint256",
          "name": "tokenId",
          "type": "uint256"
        }
      ],
      "name": "ownerOf",
      "outputs": [
        {
          "internalType": "address",
          "name": "",
          "type": "address"
        }
      ],
      "stateMutability": "view",
      "type": "function"
    },
    {
      "inputs": [],
      "name": "pause",
      "outputs": [],
      "stateMutability": "nonpayable",
      "type": "function"
    },
    {
      "inputs": [],
      "name": "paused",
      "outputs": [
        {
          "internalType": "bool",
          "name": "",
          "type": "bool"
        }
      ],
      "stateMutability": "view",
      "type": "function"
    },
    {
      "inputs": [
        {
          "internalType": "bytes32",
          "name": "role",
          "type": "bytes32"
        },
        {
          "internalType": "address",
          "name": "account",
          "type": "address"
        }
      ],
      "name": "renounceRole",
      "outputs": [],
      "stateMutability": "nonpayable",
      "type": "function"
    },
    {
      "inputs": [
        {
          "internalType": "bytes32",
          "name": "role",
          "type": "bytes32"
        },
        {
          "internalType": "address",
          "name": "account",
          "type": "address"
        }
      ],
      "name": "revokeRole",
      "outputs": [],
      "stateMutability": "nonpayable",
      "type": "function"
    },
    {
      "inputs": [
        {
          "internalType": "address",
          "name": "from",
          "type": "address"
        },
        {
          "internalType": "address",
          "name": "to",
          "type": "address"
        },
        {
          "internalType": "uint256",
          "name": "tokenId",
          "type": "uint256"
        }
      ],
      "name": "safeTransferFrom",
      "outputs": [],
      "stateMutability": "nonpayable",
      "type": "function"
    },
    {
      "inputs": [
        {
          "internalType": "address",
          "name": "from",
          "type": "address"
        },
        {
          "internalType": "address",
          "name": "to",
          "type": "address"
        },
        {
          "internalType": "uint256",
          "name": "tokenId",
          "type": "uint256"
        },
        {
          "internalType": "bytes",
          "name": "_data",
          "type": "bytes"
        }
      ],
      "name": "safeTransferFrom",
      "outputs": [],
      "stateMutability": "nonpayable",
      "type": "function"
    },
    {
      "inputs": [
        {
          "internalType": "address",
          "name": "operator",
          "type": "address"
        },
        {
          "internalType": "bool",
          "name": "approved",
          "type": "bool"
        }
      ],
      "name": "setApprovalForAll",
      "outputs": [],
      "stateMutability": "nonpayable",
      "type": "function"
    },
    {
      "inputs": [
        {
          "internalType": "bytes4",
          "name": "interfaceId",
          "type": "bytes4"
        }
      ],
      "name": "supportsInterface",
      "outputs": [
        {
          "internalType": "bool",
          "name": "",
          "type": "bool"
        }
      ],
      "stateMutability": "view",
      "type": "function"
    },
    {
      "inputs": [],
      "name": "symbol",
      "outputs": [
        {
          "internalType": "string",
          "name": "",
          "type": "string"
        }
      ],
      "stateMutability": "view",
      "type": "function"
    },
    {
      "inputs": [
        {
          "internalType": "uint256",
          "name": "index",
          "type": "uint256"
        }
      ],
      "name": "tokenByIndex",
      "outputs": [
        {
          "internalType": "uint256",
          "name": "",
          "type": "uint256"
        }
      ],
      "stateMutability": "view",
      "type": "function"
    },
    {
      "inputs": [
        {
          "internalType": "address",
          "name": "owner",
          "type": "address"
        },
        {
          "internalType": "uint256",
          "name": "index",
          "type": "uint256"
        }
      ],
      "name": "tokenOfOwnerByIndex",
      "outputs": [
        {
          "internalType": "uint256",
          "name": "",
          "type": "uint256"
        }
      ],
      "stateMutability": "view",
      "type": "function"
    },
    {
      "inputs": [
        {
          "internalType": "uint256",
          "name": "tokenId",
          "type": "uint256"
        }
      ],
      "name": "tokenURI",
      "outputs": [
        {
          "internalType": "string",
          "name": "",
          "type": "string"
        }
      ],
      "stateMutability": "view",
      "type": "function"
    },
    {
      "inputs": [],
      "name": "totalSupply",
      "outputs": [
        {
          "internalType": "uint256",
          "name": "",
          "type": "uint256"
        }
      ],
      "stateMutability": "view",
      "type": "function"
    },
    {
      "inputs": [
        {
          "internalType": "address",
          "name": "from",
          "type": "address"
        },
        {
          "internalType": "address",
          "name": "to",
          "type": "address"
        },
        {
          "internalType": "uint256",
          "name": "tokenId",
          "type": "uint256"
        }
      ],
      "name": "transferFrom",
      "outputs": [],
      "stateMutability": "nonpayable",
      "type": "function"
    },
    {
      "inputs": [],
      "name": "unpause",
      "outputs": [],
      "stateMutability": "nonpayable",
      "type": "function"
    }
  ],
  "bytecode": "0x6080604052601080546001600160a01b03191673723b5ad644bde85a51d30c92ffc7bdb40f940fc61790553480156200003757600080fd5b5060405162002ac538038062002ac58339810160408190526200005a916200031e565b604080518082018252601281527150494b424c4f434b202d20465249454e445360701b60208083019182528351808501909452600a84526950494b465249454e445360b01b908401528151919291620000b69160009162000278565b508051620000cc90600190602084019062000278565b5050600b805460ff1916905550601054620000f3906000906001600160a01b0316620001c4565b6010546200012c907f65d7a28e3265b37a6474929f336521b332c1681b933f6cb9f3376673440d862a906001600160a01b0316620001c4565b60105462000165907f8f2e0057cd5e35397007bcc8f5418f73dd64cc6e4073a0276563f247c3079037906001600160a01b0316620001c4565b6010546200019e907f3c11d16cbaffd01df69ce1c404f6340ee057498f5f00246190ea54220576a848906001600160a01b0316620001c4565b600f80546001600160a01b0319166001600160a01b03929092169190911790556200038b565b620001d08282620001d4565b5050565b6000828152600c602090815260408083206001600160a01b038516845290915290205460ff16620001d0576000828152600c602090815260408083206001600160a01b03851684529091529020805460ff19166001179055620002343390565b6001600160a01b0316816001600160a01b0316837f2f8788117e7eff1d82e926ec794901d17c78024a50270940304540a733656f0d60405160405180910390a45050565b82805462000286906200034e565b90600052602060002090601f016020900481019282620002aa5760008555620002f5565b82601f10620002c557805160ff1916838001178555620002f5565b82800160010185558215620002f5579182015b82811115620002f5578251825591602001919060010190620002d8565b506200030392915062000307565b5090565b5b8082111562000303576000815560010162000308565b60006020828403121562000330578081fd5b81516001600160a01b038116811462000347578182fd5b9392505050565b600181811c908216806200036357607f821691505b602082108114156200038557634e487b7160e01b600052602260045260246000fd5b50919050565b61272a806200039b6000396000f3fe608060405234801561001057600080fd5b50600436106101f05760003560e01c80635c975abb1161010f578063b351dfe8116100a2578063e45c084d11610071578063e45c084d14610429578063e47d606014610450578063e63ab1e91461047c578063e985e9c5146104a3576101f0565b8063b351dfe8146103dd578063b88d4fde146103f0578063c87b56dd14610403578063d547741f14610416576101f0565b806391d14854116100de57806391d14854146103a757806395d89b41146103ba578063a217fddf146103c2578063a22cb465146103ca576101f0565b80635c975abb1461036e5780636352211e1461037957806370a082311461038c5780638456cb591461039f576101f0565b80632f2ff15d1161018757806342842e0e1161015657806342842e0e1461032257806342966c681461033557806345576f94146103485780634f6ccce71461035b576101f0565b80632f2ff15d146102e15780632f745c59146102f457806336568abe146103075780633f4ba83a1461031a576101f0565b806318160ddd116101c357806318160ddd1461027257806323b872dd14610284578063248a9ca314610297578063282c51f3146102ba576101f0565b806301ffc9a7146101f557806306fdde031461021d578063081812fc14610232578063095ea7b31461025d575b600080fd5b61020861020336600461234c565b6104df565b60405190151581526020015b60405180910390f35b6102256104f2565b60405161021491906124d7565b610245610240366004612312565b610584565b6040516001600160a01b039091168152602001610214565b61027061026b3660046122e9565b610611565b005b6008545b604051908152602001610214565b6102706102923660046121fb565b610727565b6102766102a5366004612312565b6000908152600c602052604090206001015490565b6102767f3c11d16cbaffd01df69ce1c404f6340ee057498f5f00246190ea54220576a84881565b6102706102ef36600461232a565b610759565b6102766103023660046122e9565b610780565b61027061031536600461232a565b610816565b610270610894565b6102706103303660046121fb565b6108ca565b610270610343366004612312565b6108e5565b610276610356366004612384565b61095c565b610276610369366004612312565b6109a4565b600b5460ff16610208565b610245610387366004612312565b610a45565b61027661039a3660046121af565b610abc565b610270610b43565b6102086103b536600461232a565b610b76565b610225610ba1565b610276600081565b6102706103d83660046122af565b610bb0565b6102706103eb3660046122af565b610bbb565b6102706103fe366004612236565b610c46565b610225610411366004612312565b610c7e565b61027061042436600461232a565b610c89565b6102767f8f2e0057cd5e35397007bcc8f5418f73dd64cc6e4073a0276563f247c307903781565b61020861045e3660046121af565b6001600160a01b03166000908152600d602052604090205460ff1690565b6102767f65d7a28e3265b37a6474929f336521b332c1681b933f6cb9f3376673440d862a81565b6102086104b13660046121c9565b6001600160a01b03918216600090815260056020908152604080832093909416825291909152205460ff1690565b60006104ea82610caf565b90505b919050565b60606000805461050190612632565b80601f016020809104026020016040519081016040528092919081815260200182805461052d90612632565b801561057a5780601f1061054f5761010080835404028352916020019161057a565b820191906000526020600020905b81548152906001019060200180831161055d57829003601f168201915b5050505050905090565b600061058f82610cd4565b6105f55760405162461bcd60e51b815260206004820152602c60248201527f4552433732313a20617070726f76656420717565727920666f72206e6f6e657860448201526b34b9ba32b73a103a37b5b2b760a11b60648201526084015b60405180910390fd5b506000908152600460205260409020546001600160a01b031690565b600061061c82610a45565b9050806001600160a01b0316836001600160a01b0316141561068a5760405162461bcd60e51b815260206004820152602160248201527f4552433732313a20617070726f76616c20746f2063757272656e74206f776e656044820152603960f91b60648201526084016105ec565b336001600160a01b03821614806106a657506106a681336104b1565b6107185760405162461bcd60e51b815260206004820152603860248201527f4552433732313a20617070726f76652063616c6c6572206973206e6f74206f7760448201527f6e6572206e6f7220617070726f76656420666f7220616c6c000000000000000060648201526084016105ec565b6107228383610cf1565b505050565b610732335b82610d5f565b61074e5760405162461bcd60e51b81526004016105ec9061253c565b610722838383610e49565b6000828152600c602052604090206001015461077681335b610ff4565b6107228383611058565b600061078b83610abc565b82106107ed5760405162461bcd60e51b815260206004820152602b60248201527f455243373231456e756d657261626c653a206f776e657220696e646578206f7560448201526a74206f6620626f756e647360a81b60648201526084016105ec565b506001600160a01b03919091166000908152600660209081526040808320938352929052205490565b6001600160a01b03811633146108865760405162461bcd60e51b815260206004820152602f60248201527f416363657373436f6e74726f6c3a2063616e206f6e6c792072656e6f756e636560448201526e103937b632b9903337b91039b2b63360891b60648201526084016105ec565b61089082826110de565b5050565b7f65d7a28e3265b37a6474929f336521b332c1681b933f6cb9f3376673440d862a6108bf8133610771565b6108c7611145565b50565b61072283838360405180602001604052806000815250610c46565b6108ee3361072c565b6109535760405162461bcd60e51b815260206004820152603060248201527f4552433732314275726e61626c653a2063616c6c6572206973206e6f74206f7760448201526f1b995c881b9bdc88185c1c1c9bdd995960821b60648201526084016105ec565b6108c7816111d8565b600061096c600e80546001019055565b6000610977600e5490565b9050610983338261120c565b61098d818461134b565b600f546104ea906001600160a01b03166001610bb0565b60006109af60085490565b8210610a125760405162461bcd60e51b815260206004820152602c60248201527f455243373231456e756d657261626c653a20676c6f62616c20696e646578206f60448201526b7574206f6620626f756e647360a01b60648201526084016105ec565b60088281548110610a3357634e487b7160e01b600052603260045260246000fd5b90600052602060002001549050919050565b6000818152600260205260408120546001600160a01b0316806104ea5760405162461bcd60e51b815260206004820152602960248201527f4552433732313a206f776e657220717565727920666f72206e6f6e657869737460448201526832b73a103a37b5b2b760b91b60648201526084016105ec565b60006001600160a01b038216610b275760405162461bcd60e51b815260206004820152602a60248201527f4552433732313a2062616c616e636520717565727920666f7220746865207a65604482015269726f206164647265737360b01b60648201526084016105ec565b506001600160a01b031660009081526003602052604090205490565b7f65d7a28e3265b37a6474929f336521b332c1681b933f6cb9f3376673440d862a610b6e8133610771565b6108c76113d6565b6000918252600c602090815260408084206001600160a01b0393909316845291905290205460ff1690565b60606001805461050190612632565b610890338383611451565b7f8f2e0057cd5e35397007bcc8f5418f73dd64cc6e4073a0276563f247c3079037610be68133610771565b6001600160a01b0383166000818152600d6020908152604091829020805460ff191686151590811790915591519182527f6a12b3df6cba4203bd7fd06b816789f87de8c594299aed5717ae070fac781bac910160405180910390a2505050565b610c503383610d5f565b610c6c5760405162461bcd60e51b81526004016105ec9061253c565b610c7884848484611520565b50505050565b60606104ea82611553565b6000828152600c6020526040902060010154610ca58133610771565b61072283836110de565b60006001600160e01b03198216637965db0b60e01b14806104ea57506104ea826116c3565b6000908152600260205260409020546001600160a01b0316151590565b600081815260046020526040902080546001600160a01b0319166001600160a01b0384169081179091558190610d2682610a45565b6001600160a01b03167f8c5be1e5ebec7d5bd14f71427d1e84f3dd0314c0f7b2291e5b200ac8c7c3b92560405160405180910390a45050565b6000610d6a82610cd4565b610dcb5760405162461bcd60e51b815260206004820152602c60248201527f4552433732313a206f70657261746f7220717565727920666f72206e6f6e657860448201526b34b9ba32b73a103a37b5b2b760a11b60648201526084016105ec565b6000610dd683610a45565b9050806001600160a01b0316846001600160a01b03161480610e115750836001600160a01b0316610e0684610584565b6001600160a01b0316145b80610e4157506001600160a01b0380821660009081526005602090815260408083209388168352929052205460ff165b949350505050565b826001600160a01b0316610e5c82610a45565b6001600160a01b031614610ec45760405162461bcd60e51b815260206004820152602960248201527f4552433732313a207472616e73666572206f6620746f6b656e2074686174206960448201526839903737ba1037bbb760b91b60648201526084016105ec565b6001600160a01b038216610f265760405162461bcd60e51b8152602060048201526024808201527f4552433732313a207472616e7366657220746f20746865207a65726f206164646044820152637265737360e01b60648201526084016105ec565b610f318383836116e8565b610f3c600082610cf1565b6001600160a01b0383166000908152600360205260408120805460019290610f659084906125d8565b90915550506001600160a01b0382166000908152600360205260408120805460019290610f9390849061258d565b909155505060008181526002602052604080822080546001600160a01b0319166001600160a01b0386811691821790925591518493918716917fddf252ad1be2c89b69c2b068fc378daa952ba7f163c4a11628f55a4df523b3ef91a4505050565b610ffe8282610b76565b61089057611016816001600160a01b031660146117bb565b6110218360206117bb565b604051602001611032929190612425565b60408051601f198184030181529082905262461bcd60e51b82526105ec916004016124d7565b6110628282610b76565b610890576000828152600c602090815260408083206001600160a01b03851684529091529020805460ff1916600117905561109a3390565b6001600160a01b0316816001600160a01b0316837f2f8788117e7eff1d82e926ec794901d17c78024a50270940304540a733656f0d60405160405180910390a45050565b6110e88282610b76565b15610890576000828152600c602090815260408083206001600160a01b0385168085529252808320805460ff1916905551339285917ff6391f5c32d9c69d2a47ea670b442974b53935d1edc7fd64eb21e047a839171b9190a45050565b600b5460ff1661118e5760405162461bcd60e51b815260206004820152601460248201527314185d5cd8589b194e881b9bdd081c185d5cd95960621b60448201526064016105ec565b600b805460ff191690557f5db9ee0a495bf2e6ff9c91a7834c1ba4fdd244a5e8aa4e537bd38aeae4b073aa335b6040516001600160a01b03909116815260200160405180910390a1565b7f3c11d16cbaffd01df69ce1c404f6340ee057498f5f00246190ea54220576a8486112038133610771565b610890826119a4565b6001600160a01b0382166112625760405162461bcd60e51b815260206004820181905260248201527f4552433732313a206d696e7420746f20746865207a65726f206164647265737360448201526064016105ec565b61126b81610cd4565b156112b85760405162461bcd60e51b815260206004820152601c60248201527f4552433732313a20746f6b656e20616c7265616479206d696e7465640000000060448201526064016105ec565b6112c4600083836116e8565b6001600160a01b03821660009081526003602052604081208054600192906112ed90849061258d565b909155505060008181526002602052604080822080546001600160a01b0319166001600160a01b03861690811790915590518392907fddf252ad1be2c89b69c2b068fc378daa952ba7f163c4a11628f55a4df523b3ef908290a45050565b61135482610cd4565b6113b75760405162461bcd60e51b815260206004820152602e60248201527f45524337323155524953746f726167653a2055524920736574206f66206e6f6e60448201526d32bc34b9ba32b73a103a37b5b2b760911b60648201526084016105ec565b6000828152600a60209081526040909120825161072292840190612051565b600b5460ff161561141c5760405162461bcd60e51b815260206004820152601060248201526f14185d5cd8589b194e881c185d5cd95960821b60448201526064016105ec565b600b805460ff191660011790557f62e78cea01bee320cd4e420270b5ea74000d11b0c9f74754ebdbfc544b05a2586111bb3390565b816001600160a01b0316836001600160a01b031614156114b35760405162461bcd60e51b815260206004820152601960248201527f4552433732313a20617070726f766520746f2063616c6c65720000000000000060448201526064016105ec565b6001600160a01b03838116600081815260056020908152604080832094871680845294825291829020805460ff191686151590811790915591519182527f17307eab39ab6107e8899845ad3d59bd9653f200f220920489ca2b5937696c31910160405180910390a3505050565b61152b848484610e49565b611537848484846119e4565b610c785760405162461bcd60e51b81526004016105ec906124ea565b606061155e82610cd4565b6115c45760405162461bcd60e51b815260206004820152603160248201527f45524337323155524953746f726167653a2055524920717565727920666f72206044820152703737b732bc34b9ba32b73a103a37b5b2b760791b60648201526084016105ec565b6000828152600a6020526040812080546115dd90612632565b80601f016020809104026020016040519081016040528092919081815260200182805461160990612632565b80156116565780601f1061162b57610100808354040283529160200191611656565b820191906000526020600020905b81548152906001019060200180831161163957829003601f168201915b50505050509050600061167460408051602081019091526000815290565b9050805160001415611688575090506104ed565b8151156116ba5780826040516020016116a29291906123f6565b604051602081830303815290604052925050506104ed565b610e4184611af1565b60006001600160e01b0319821663780e9d6360e01b14806104ea57506104ea82611bc8565b600b5460ff161561172e5760405162461bcd60e51b815260206004820152601060248201526f14185d5cd8589b194e881c185d5cd95960821b60448201526064016105ec565b6001600160a01b0382166000908152600d602052604090205460ff16156117b05760405162461bcd60e51b815260206004820152603060248201527f546f6b656e207472616e7366657220726566757365642e20526563656976657260448201526f081a5cc81bdb88189b1858dadb1a5cdd60821b60648201526084016105ec565b610722838383611c18565b606060006117ca8360026125b9565b6117d590600261258d565b67ffffffffffffffff8111156117fb57634e487b7160e01b600052604160045260246000fd5b6040519080825280601f01601f191660200182016040528015611825576020820181803683370190505b509050600360fc1b8160008151811061184e57634e487b7160e01b600052603260045260246000fd5b60200101906001600160f81b031916908160001a905350600f60fb1b8160018151811061188b57634e487b7160e01b600052603260045260246000fd5b60200101906001600160f81b031916908160001a90535060006118af8460026125b9565b6118ba90600161258d565b90505b600181111561194e576f181899199a1a9b1b9c1cb0b131b232b360811b85600f16601081106118fc57634e487b7160e01b600052603260045260246000fd5b1a60f81b82828151811061192057634e487b7160e01b600052603260045260246000fd5b60200101906001600160f81b031916908160001a90535060049490941c936119478161261b565b90506118bd565b50831561199d5760405162461bcd60e51b815260206004820181905260248201527f537472696e67733a20686578206c656e67746820696e73756666696369656e7460448201526064016105ec565b9392505050565b6119ad81611cd5565b6000818152600a6020526040902080546119c690612632565b1590506108c7576000818152600a602052604081206108c7916120d5565b60006001600160a01b0384163b15611ae657604051630a85bd0160e11b81526001600160a01b0385169063150b7a0290611a2890339089908890889060040161249a565b602060405180830381600087803b158015611a4257600080fd5b505af1925050508015611a72575060408051601f3d908101601f19168201909252611a6f91810190612368565b60015b611acc573d808015611aa0576040519150601f19603f3d011682016040523d82523d6000602084013e611aa5565b606091505b508051611ac45760405162461bcd60e51b81526004016105ec906124ea565b805181602001fd5b6001600160e01b031916630a85bd0160e11b149050610e41565b506001949350505050565b6060611afc82610cd4565b611b605760405162461bcd60e51b815260206004820152602f60248201527f4552433732314d657461646174613a2055524920717565727920666f72206e6f60448201526e3732bc34b9ba32b73a103a37b5b2b760891b60648201526084016105ec565b6000611b7760408051602081019091526000815290565b90506000815111611b97576040518060200160405280600081525061199d565b80611ba184611d7c565b604051602001611bb29291906123f6565b6040516020818303038152906040529392505050565b60006001600160e01b031982166380ac58cd60e01b1480611bf957506001600160e01b03198216635b5e139f60e01b145b806104ea57506301ffc9a760e01b6001600160e01b03198316146104ea565b6001600160a01b038316611c7357611c6e81600880546000838152600960205260408120829055600182018355919091527ff3f7a9fe364faab93b216da50a3214154f22a0a2b415b23a84c8169e8b636ee30155565b611c96565b816001600160a01b0316836001600160a01b031614611c9657611c968382611e97565b6001600160a01b038216611cb257611cad81611f34565b610722565b826001600160a01b0316826001600160a01b03161461072257610722828261200d565b6000611ce082610a45565b9050611cee816000846116e8565b611cf9600083610cf1565b6001600160a01b0381166000908152600360205260408120805460019290611d229084906125d8565b909155505060008281526002602052604080822080546001600160a01b0319169055518391906001600160a01b038416907fddf252ad1be2c89b69c2b068fc378daa952ba7f163c4a11628f55a4df523b3ef908390a45050565b606081611da157506040805180820190915260018152600360fc1b60208201526104ed565b8160005b8115611dcb5780611db58161266d565b9150611dc49050600a836125a5565b9150611da5565b60008167ffffffffffffffff811115611df457634e487b7160e01b600052604160045260246000fd5b6040519080825280601f01601f191660200182016040528015611e1e576020820181803683370190505b5090505b8415610e4157611e336001836125d8565b9150611e40600a86612688565b611e4b90603061258d565b60f81b818381518110611e6e57634e487b7160e01b600052603260045260246000fd5b60200101906001600160f81b031916908160001a905350611e90600a866125a5565b9450611e22565b60006001611ea484610abc565b611eae91906125d8565b600083815260076020526040902054909150808214611f01576001600160a01b03841660009081526006602090815260408083208584528252808320548484528184208190558352600790915290208190555b5060009182526007602090815260408084208490556001600160a01b039094168352600681528383209183525290812055565b600854600090611f46906001906125d8565b60008381526009602052604081205460088054939450909284908110611f7c57634e487b7160e01b600052603260045260246000fd5b906000526020600020015490508060088381548110611fab57634e487b7160e01b600052603260045260246000fd5b6000918252602080832090910192909255828152600990915260408082208490558582528120556008805480611ff157634e487b7160e01b600052603160045260246000fd5b6001900381819060005260206000200160009055905550505050565b600061201883610abc565b6001600160a01b039093166000908152600660209081526040808320868452825280832085905593825260079052919091209190915550565b82805461205d90612632565b90600052602060002090601f01602090048101928261207f57600085556120c5565b82601f1061209857805160ff19168380011785556120c5565b828001600101855582156120c5579182015b828111156120c55782518255916020019190600101906120aa565b506120d192915061210d565b5090565b5080546120e190612632565b6000825580601f106120f357506108c7565b601f0160209004906000526020600020908101906108c791905b5b808211156120d1576000815560010161210e565b600067ffffffffffffffff8084111561213d5761213d6126c8565b604051601f8501601f19908116603f01168101908282118183101715612165576121656126c8565b8160405280935085815286868601111561217e57600080fd5b858560208301376000602087830101525050509392505050565b80356001600160a01b03811681146104ed57600080fd5b6000602082840312156121c0578081fd5b61199d82612198565b600080604083850312156121db578081fd5b6121e483612198565b91506121f260208401612198565b90509250929050565b60008060006060848603121561220f578081fd5b61221884612198565b925061222660208501612198565b9150604084013590509250925092565b6000806000806080858703121561224b578081fd5b61225485612198565b935061226260208601612198565b925060408501359150606085013567ffffffffffffffff811115612284578182fd5b8501601f81018713612294578182fd5b6122a387823560208401612122565b91505092959194509250565b600080604083850312156122c1578182fd5b6122ca83612198565b9150602083013580151581146122de578182fd5b809150509250929050565b600080604083850312156122fb578182fd5b61230483612198565b946020939093013593505050565b600060208284031215612323578081fd5b5035919050565b6000806040838503121561233c578182fd5b823591506121f260208401612198565b60006020828403121561235d578081fd5b813561199d816126de565b600060208284031215612379578081fd5b815161199d816126de565b600060208284031215612395578081fd5b813567ffffffffffffffff8111156123ab578182fd5b8201601f810184136123bb578182fd5b610e4184823560208401612122565b600081518084526123e28160208601602086016125ef565b601f01601f19169290920160200192915050565b600083516124088184602088016125ef565b83519083019061241c8183602088016125ef565b01949350505050565b60007f416363657373436f6e74726f6c3a206163636f756e74200000000000000000008252835161245d8160178501602088016125ef565b7001034b99036b4b9b9b4b733903937b6329607d1b601791840191820152835161248e8160288401602088016125ef565b01602801949350505050565b6001600160a01b03858116825284166020820152604081018390526080606082018190526000906124cd908301846123ca565b9695505050505050565b60006020825261199d60208301846123ca565b60208082526032908201527f4552433732313a207472616e7366657220746f206e6f6e20455243373231526560408201527131b2b4bb32b91034b6b83632b6b2b73a32b960711b606082015260800190565b60208082526031908201527f4552433732313a207472616e736665722063616c6c6572206973206e6f74206f6040820152701ddb995c881b9bdc88185c1c1c9bdd9959607a1b606082015260800190565b600082198211156125a0576125a061269c565b500190565b6000826125b4576125b46126b2565b500490565b60008160001904831182151516156125d3576125d361269c565b500290565b6000828210156125ea576125ea61269c565b500390565b60005b8381101561260a5781810151838201526020016125f2565b83811115610c785750506000910152565b60008161262a5761262a61269c565b506000190190565b600181811c9082168061264657607f821691505b6020821081141561266757634e487b7160e01b600052602260045260246000fd5b50919050565b60006000198214156126815761268161269c565b5060010190565b600082612697576126976126b2565b500690565b634e487b7160e01b600052601160045260246000fd5b634e487b7160e01b600052601260045260246000fd5b634e487b7160e01b600052604160045260246000fd5b6001600160e01b0319811681146108c757600080fdfea2646970667358221220788414f4038ca5a9f16d0b7d9e48e6f30a642ae66fe6f6febc65a4239c4c95ce64736f6c63430008030033",
  "linkReferences": {},
  "deployedLinkReferences": {}
}